{
  "_format": "hh-sol-artifact-1",
  "contractName": "CRYBStaking",
  "sourceName": "contracts/CRYBStaking.sol",
  "abi": [
    {
      "inputs": [
        {
          "internalType": "contract IERC20",
          "name": "_rewardToken",
          "type": "address"
        },
        {
          "internalType": "uint256",
          "name": "_rewardPerBlock",
          "type": "uint256"
        },
        {
          "internalType": "uint256",
          "name": "_startBlock",
          "type": "uint256"
        }
      ],
      "stateMutability": "nonpayable",
      "type": "constructor"
    },
    {
      "anonymous": false,
      "inputs": [
        {
          "indexed": true,
          "internalType": "address",
          "name": "user",
          "type": "address"
        },
        {
          "indexed": true,
          "internalType": "uint256",
          "name": "pid",
          "type": "uint256"
        },
        {
          "indexed": false,
          "internalType": "uint256",
          "name": "amount",
          "type": "uint256"
        }
      ],
      "name": "Deposit",
      "type": "event"
    },
    {
      "anonymous": false,
      "inputs": [
        {
          "indexed": true,
          "internalType": "address",
          "name": "user",
          "type": "address"
        },
        {
          "indexed": true,
          "internalType": "uint256",
          "name": "pid",
          "type": "uint256"
        },
        {
          "indexed": false,
          "internalType": "uint256",
          "name": "amount",
          "type": "uint256"
        }
      ],
      "name": "EmergencyWithdraw",
      "type": "event"
    },
    {
      "anonymous": false,
      "inputs": [
        {
          "indexed": true,
          "internalType": "address",
          "name": "previousOwner",
          "type": "address"
        },
        {
          "indexed": true,
          "internalType": "address",
          "name": "newOwner",
          "type": "address"
        }
      ],
      "name": "OwnershipTransferred",
      "type": "event"
    },
    {
      "anonymous": false,
      "inputs": [
        {
          "indexed": true,
          "internalType": "address",
          "name": "user",
          "type": "address"
        },
        {
          "indexed": true,
          "internalType": "uint256",
          "name": "pid",
          "type": "uint256"
        },
        {
          "indexed": false,
          "internalType": "uint256",
          "name": "amount",
          "type": "uint256"
        }
      ],
      "name": "Withdraw",
      "type": "event"
    },
    {
      "inputs": [
        {
          "internalType": "uint256",
          "name": "_allocPoint",
          "type": "uint256"
        },
        {
          "internalType": "contract IERC20",
          "name": "_lpToken",
          "type": "address"
        },
        {
          "internalType": "uint256",
          "name": "_depositFee",
          "type": "uint256"
        },
        {
          "internalType": "bool",
          "name": "_withUpdate",
          "type": "bool"
        }
      ],
      "name": "add",
      "outputs": [],
      "stateMutability": "nonpayable",
      "type": "function"
    },
    {
      "inputs": [
        {
          "internalType": "uint256",
          "name": "_pid",
          "type": "uint256"
        },
        {
          "internalType": "uint256",
          "name": "_amount",
          "type": "uint256"
        }
      ],
      "name": "deposit",
      "outputs": [],
      "stateMutability": "nonpayable",
      "type": "function"
    },
    {
      "inputs": [
        {
          "internalType": "uint256",
          "name": "_pid",
          "type": "uint256"
        }
      ],
      "name": "emergencyWithdraw",
      "outputs": [],
      "stateMutability": "nonpayable",
      "type": "function"
    },
    {
      "inputs": [],
      "name": "massUpdatePools",
      "outputs": [],
      "stateMutability": "nonpayable",
      "type": "function"
    },
    {
      "inputs": [],
      "name": "owner",
      "outputs": [
        {
          "internalType": "address",
          "name": "",
          "type": "address"
        }
      ],
      "stateMutability": "view",
      "type": "function"
    },
    {
      "inputs": [
        {
          "internalType": "uint256",
          "name": "_pid",
          "type": "uint256"
        },
        {
          "internalType": "address",
          "name": "_user",
          "type": "address"
        }
      ],
      "name": "pendingReward",
      "outputs": [
        {
          "internalType": "uint256",
          "name": "",
          "type": "uint256"
        }
      ],
      "stateMutability": "view",
      "type": "function"
    },
    {
      "inputs": [
        {
          "internalType": "uint256",
          "name": "",
          "type": "uint256"
        }
      ],
      "name": "poolInfo",
      "outputs": [
        {
          "internalType": "contract IERC20",
          "name": "lpToken",
          "type": "address"
        },
        {
          "internalType": "uint256",
          "name": "allocPoint",
          "type": "uint256"
        },
        {
          "internalType": "uint256",
          "name": "lastRewardBlock",
          "type": "uint256"
        },
        {
          "internalType": "uint256",
          "name": "accRewardPerShare",
          "type": "uint256"
        },
        {
          "internalType": "uint256",
          "name": "depositFee",
          "type": "uint256"
        }
      ],
      "stateMutability": "view",
      "type": "function"
    },
    {
      "inputs": [],
      "name": "poolLength",
      "outputs": [
        {
          "internalType": "uint256",
          "name": "",
          "type": "uint256"
        }
      ],
      "stateMutability": "view",
      "type": "function"
    },
    {
      "inputs": [],
      "name": "renounceOwnership",
      "outputs": [],
      "stateMutability": "nonpayable",
      "type": "function"
    },
    {
      "inputs": [],
      "name": "rewardPerBlock",
      "outputs": [
        {
          "internalType": "uint256",
          "name": "",
          "type": "uint256"
        }
      ],
      "stateMutability": "view",
      "type": "function"
    },
    {
      "inputs": [],
      "name": "rewardToken",
      "outputs": [
        {
          "internalType": "contract IERC20",
          "name": "",
          "type": "address"
        }
      ],
      "stateMutability": "view",
      "type": "function"
    },
    {
      "inputs": [],
      "name": "startBlock",
      "outputs": [
        {
          "internalType": "uint256",
          "name": "",
          "type": "uint256"
        }
      ],
      "stateMutability": "view",
      "type": "function"
    },
    {
      "inputs": [],
      "name": "totalAllocPoint",
      "outputs": [
        {
          "internalType": "uint256",
          "name": "",
          "type": "uint256"
        }
      ],
      "stateMutability": "view",
      "type": "function"
    },
    {
      "inputs": [
        {
          "internalType": "address",
          "name": "newOwner",
          "type": "address"
        }
      ],
      "name": "transferOwnership",
      "outputs": [],
      "stateMutability": "nonpayable",
      "type": "function"
    },
    {
      "inputs": [
        {
          "internalType": "uint256",
          "name": "_pid",
          "type": "uint256"
        }
      ],
      "name": "updatePool",
      "outputs": [],
      "stateMutability": "nonpayable",
      "type": "function"
    },
    {
      "inputs": [
        {
          "internalType": "uint256",
          "name": "",
          "type": "uint256"
        },
        {
          "internalType": "address",
          "name": "",
          "type": "address"
        }
      ],
      "name": "userInfo",
      "outputs": [
        {
          "internalType": "uint256",
          "name": "amount",
          "type": "uint256"
        },
        {
          "internalType": "uint256",
          "name": "rewardDebt",
          "type": "uint256"
        }
      ],
      "stateMutability": "view",
      "type": "function"
    },
    {
      "inputs": [
        {
          "internalType": "uint256",
          "name": "_pid",
          "type": "uint256"
        },
        {
          "internalType": "uint256",
          "name": "_amount",
          "type": "uint256"
        }
      ],
      "name": "withdraw",
      "outputs": [],
      "stateMutability": "nonpayable",
      "type": "function"
    }
  ],
  "bytecode": "0x6080604052600060075534801561001557600080fd5b50604051611369380380611369833981016040819052610034916100bd565b61003d3361006d565b60018055600280546001600160a01b0319166001600160a01b039490941693909317909255600355600455610100565b600080546001600160a01b038381166001600160a01b0319831681178455604051919092169283917f8be0079c531659141344cd1fd0a4f28419497f9722a3daafe3b4186f6b6457e09190a35050565b6000806000606084860312156100d257600080fd5b83516001600160a01b03811681146100e957600080fd5b602085015160409095015190969495509392505050565b61125a8061010f6000396000f3fe608060405234801561001057600080fd5b506004361061010b5760003560e01c8063715018a6116100a2578063988d7a6011610071578063988d7a601461023e57806398969e8214610251578063e2bbb15814610264578063f2fde38b14610277578063f7c618c11461028a57600080fd5b8063715018a6146101c15780638ae39cac146101c95780638da5cb5b146101d257806393f1a40b146101f757600080fd5b806348cd4cb1116100de57806348cd4cb11461018a57806351eb05a6146101935780635312ea8e146101a6578063630b5ba1146101b957600080fd5b8063081e3eda146101105780631526fe271461012757806317caf6f11461016c578063441a3e7014610175575b600080fd5b6005545b6040519081526020015b60405180910390f35b61013a610135366004611004565b61029d565b604080516001600160a01b0390961686526020860194909452928401919091526060830152608082015260a00161011e565b61011460075481565b61018861018336600461101d565b6102e8565b005b61011460045481565b6101886101a1366004611004565b610460565b6101886101b4366004611004565b6105a1565b610188610654565b61018861067b565b61011460035481565b6000546001600160a01b03165b6040516001600160a01b03909116815260200161011e565b610229610205366004611054565b60066020908152600092835260408084209091529082529020805460019091015482565b6040805192835260208301919091520161011e565b61018861024c366004611092565b61068f565b61011461025f366004611054565b6107eb565b61018861027236600461101d565b61095e565b6101886102853660046110dc565b610adf565b6002546101df906001600160a01b031681565b600581815481106102ad57600080fd5b6000918252602090912060059091020180546001820154600283015460038401546004909401546001600160a01b0390931694509092909185565b6102f0610b55565b60006005838154811061030557610305611100565b6000918252602080832086845260068252604080852033865290925292208054600590920290920192508311156103785760405162461bcd60e51b81526020600482015260126024820152711dda5d1a191c985dce881b9bdd0819dbdbd960721b60448201526064015b60405180910390fd5b61038184610460565b6000816001015464e8d4a51000846003015484600001546103a2919061112c565b6103ac9190611143565b6103b69190611165565b905080156103c8576103c83382610bae565b83156103f35781546103db908590611165565b825582546103f3906001600160a01b03163386610c54565b6003830154825464e8d4a510009161040a9161112c565b6104149190611143565b6001830155604051848152859033907ff279e6a1f5e320cca91135676d9cb6e44ca8a08c0b88342bcdb1144f6511b5689060200160405180910390a350505061045c60018055565b5050565b60006005828154811061047557610475611100565b9060005260206000209060050201905080600201544311610494575050565b80546040516370a0823160e01b81523060048201526000916001600160a01b0316906370a0823190602401602060405180830381865afa1580156104dc573d6000803e3d6000fd5b505050506040513d601f19601f820116820180604052508101906105009190611178565b905080158061051157506001820154155b1561052157504360029091015550565b60008260020154436105339190611165565b9050600060075484600101546003548461054d919061112c565b610557919061112c565b6105619190611143565b9050826105738264e8d4a5100061112c565b61057d9190611143565b846003015461058c9190611191565b60038501555050436002909201919091555050565b6105a9610b55565b6000600582815481106105be576105be611100565b60009182526020808320858452600682526040808520338087529352842080548582556001820195909555600590930201805490945091929161060e916001600160a01b03919091169083610c54565b604051818152849033907fbb757047c2b5f3974fe26b7c10f732e7bce710b0952a71082702781e62ae05959060200160405180910390a350505061065160018055565b50565b60055460005b8181101561045c5761066b81610460565b610674816111a4565b905061065a565b610683610cb7565b61068d6000610d11565b565b610697610cb7565b80156106a5576106a5610654565b600060045443116106b8576004546106ba565b435b9050846007546106ca9190611191565b6007556040805160a0810182526001600160a01b0395861681526020810196875290810191825260006060820181815260808301958652600580546001810182559281905292517f036b6384b5eca791c62761152d0c79bb0604c104a5fb6f4eb0703f3154bb3db09290930291820180546001600160a01b031916939097169290921790955594517f036b6384b5eca791c62761152d0c79bb0604c104a5fb6f4eb0703f3154bb3db1850155517f036b6384b5eca791c62761152d0c79bb0604c104a5fb6f4eb0703f3154bb3db28401555091517f036b6384b5eca791c62761152d0c79bb0604c104a5fb6f4eb0703f3154bb3db382015590517f036b6384b5eca791c62761152d0c79bb0604c104a5fb6f4eb0703f3154bb3db490910155565b6000806005848154811061080157610801611100565b600091825260208083208784526006825260408085206001600160a01b03898116875293528085206005949094029091016003810154815492516370a0823160e01b815230600482015291965093949291909116906370a0823190602401602060405180830381865afa15801561087c573d6000803e3d6000fd5b505050506040513d601f19601f820116820180604052508101906108a09190611178565b90508360020154431180156108b457508015155b156109245760008460020154436108cb9190611165565b905060006007548660010154600354846108e5919061112c565b6108ef919061112c565b6108f99190611143565b90508261090b8264e8d4a5100061112c565b6109159190611143565b61091f9085611191565b935050505b6001830154835464e8d4a510009061093d90859061112c565b6109479190611143565b6109519190611165565b9450505050505b92915050565b610966610b55565b60006005838154811061097b5761097b611100565b600091825260208083208684526006825260408085203386529092529220600590910290910191506109ac84610460565b8054156109fc576000816001015464e8d4a51000846003015484600001546109d4919061112c565b6109de9190611143565b6109e89190611165565b905080156109fa576109fa3382610bae565b505b8215610a77578154610a19906001600160a01b0316333086610d61565b600482015415610a67576000612710836004015485610a38919061112c565b610a429190611143565b905080848360000154610a559190611191565b610a5f9190611165565b825550610a77565b8054610a74908490611191565b81555b6003820154815464e8d4a5100091610a8e9161112c565b610a989190611143565b6001820155604051838152849033907f90890809c654f11d6e72a28fa60149770a0d11ec6c92319d6ceb2bb0a4ea1a159060200160405180910390a3505061045c60018055565b610ae7610cb7565b6001600160a01b038116610b4c5760405162461bcd60e51b815260206004820152602660248201527f4f776e61626c653a206e6577206f776e657220697320746865207a65726f206160448201526564647265737360d01b606482015260840161036f565b61065181610d11565b600260015403610ba75760405162461bcd60e51b815260206004820152601f60248201527f5265656e7472616e637947756172643a207265656e7472616e742063616c6c00604482015260640161036f565b6002600155565b6002546040516370a0823160e01b81523060048201526000916001600160a01b0316906370a0823190602401602060405180830381865afa158015610bf7573d6000803e3d6000fd5b505050506040513d601f19601f82011682018060405250810190610c1b9190611178565b905080821115610c4157600254610c3c906001600160a01b03168483610c54565b505050565b600254610c3c906001600160a01b031684845b6040516001600160a01b038316602482015260448101829052610c3c90849063a9059cbb60e01b906064015b60408051601f198184030181529190526020810180516001600160e01b03166001600160e01b031990931692909217909152610d9f565b6000546001600160a01b0316331461068d5760405162461bcd60e51b815260206004820181905260248201527f4f776e61626c653a2063616c6c6572206973206e6f7420746865206f776e6572604482015260640161036f565b600080546001600160a01b038381166001600160a01b0319831681178455604051919092169283917f8be0079c531659141344cd1fd0a4f28419497f9722a3daafe3b4186f6b6457e09190a35050565b6040516001600160a01b0380851660248301528316604482015260648101829052610d999085906323b872dd60e01b90608401610c80565b50505050565b6000610df4826040518060400160405280602081526020017f5361666545524332303a206c6f772d6c6576656c2063616c6c206661696c6564815250856001600160a01b0316610e749092919063ffffffff16565b9050805160001480610e15575080806020019051810190610e1591906111bd565b610c3c5760405162461bcd60e51b815260206004820152602a60248201527f5361666545524332303a204552433230206f7065726174696f6e20646964206e6044820152691bdd081cdd58d8d9595960b21b606482015260840161036f565b6060610e838484600085610e8b565b949350505050565b606082471015610eec5760405162461bcd60e51b815260206004820152602660248201527f416464726573733a20696e73756666696369656e742062616c616e636520666f6044820152651c8818d85b1b60d21b606482015260840161036f565b600080866001600160a01b03168587604051610f0891906111fe565b60006040518083038185875af1925050503d8060008114610f45576040519150601f19603f3d011682016040523d82523d6000602084013e610f4a565b606091505b5091509150610f5b87838387610f66565b979650505050505050565b60608315610fd5578251600003610fce576001600160a01b0385163b610fce5760405162461bcd60e51b815260206004820152601d60248201527f416464726573733a2063616c6c20746f206e6f6e2d636f6e7472616374000000604482015260640161036f565b5081610e83565b610e838383815115610fea5781518083602001fd5b8060405162461bcd60e51b815260040161036f919061121a565b60006020828403121561101657600080fd5b5035919050565b6000806040838503121561103057600080fd5b50508035926020909101359150565b6001600160a01b038116811461065157600080fd5b6000806040838503121561106757600080fd5b8235915060208301356110798161103f565b809150509250929050565b801515811461065157600080fd5b600080600080608085870312156110a857600080fd5b8435935060208501356110ba8161103f565b92506040850135915060608501356110d181611084565b939692955090935050565b6000602082840312156110ee57600080fd5b81356110f98161103f565b9392505050565b634e487b7160e01b600052603260045260246000fd5b634e487b7160e01b600052601160045260246000fd5b808202811582820484141761095857610958611116565b60008261116057634e487b7160e01b600052601260045260246000fd5b500490565b8181038181111561095857610958611116565b60006020828403121561118a57600080fd5b5051919050565b8082018082111561095857610958611116565b6000600182016111b6576111b6611116565b5060010190565b6000602082840312156111cf57600080fd5b81516110f981611084565b60005b838110156111f55781810151838201526020016111dd565b50506000910152565b600082516112108184602087016111da565b9190910192915050565b60208152600082518060208401526112398160408501602087016111da565b601f01601f1916919091016040019291505056fea164736f6c6343000813000a",
  "linkReferences": {},
  "deployedLinkReferences": {}
}