{
  "_format": "hh-sol-artifact-1",
  "contractName": "Treasury",
  "sourceName": "contracts/Treasury.sol",
  "abi": [
    {
      "inputs": [
        {
          "internalType": "address",
          "name": "_governanceToken",
          "type": "address"
        }
      ],
      "stateMutability": "nonpayable",
      "type": "constructor"
    },
    {
      "anonymous": false,
      "inputs": [
        {
          "indexed": true,
          "internalType": "address",
          "name": "from",
          "type": "address"
        },
        {
          "indexed": false,
          "internalType": "uint256",
          "name": "amount",
          "type": "uint256"
        },
        {
          "indexed": true,
          "internalType": "address",
          "name": "token",
          "type": "address"
        }
      ],
      "name": "FundsReceived",
      "type": "event"
    },
    {
      "anonymous": false,
      "inputs": [
        {
          "indexed": true,
          "internalType": "address",
          "name": "to",
          "type": "address"
        },
        {
          "indexed": false,
          "internalType": "uint256",
          "name": "amount",
          "type": "uint256"
        },
        {
          "indexed": true,
          "internalType": "address",
          "name": "token",
          "type": "address"
        }
      ],
      "name": "FundsWithdrawn",
      "type": "event"
    },
    {
      "anonymous": false,
      "inputs": [
        {
          "indexed": true,
          "internalType": "address",
          "name": "previousOwner",
          "type": "address"
        },
        {
          "indexed": true,
          "internalType": "address",
          "name": "newOwner",
          "type": "address"
        }
      ],
      "name": "OwnershipTransferred",
      "type": "event"
    },
    {
      "anonymous": false,
      "inputs": [
        {
          "indexed": true,
          "internalType": "uint256",
          "name": "proposalId",
          "type": "uint256"
        }
      ],
      "name": "ProposalCancelled",
      "type": "event"
    },
    {
      "anonymous": false,
      "inputs": [
        {
          "indexed": true,
          "internalType": "uint256",
          "name": "proposalId",
          "type": "uint256"
        },
        {
          "indexed": true,
          "internalType": "address",
          "name": "proposer",
          "type": "address"
        },
        {
          "indexed": false,
          "internalType": "string",
          "name": "description",
          "type": "string"
        },
        {
          "indexed": false,
          "internalType": "enum Treasury.ProposalType",
          "name": "proposalType",
          "type": "uint8"
        }
      ],
      "name": "ProposalCreated",
      "type": "event"
    },
    {
      "anonymous": false,
      "inputs": [
        {
          "indexed": true,
          "internalType": "uint256",
          "name": "proposalId",
          "type": "uint256"
        }
      ],
      "name": "ProposalExecuted",
      "type": "event"
    },
    {
      "anonymous": false,
      "inputs": [
        {
          "indexed": true,
          "internalType": "uint256",
          "name": "proposalId",
          "type": "uint256"
        },
        {
          "indexed": true,
          "internalType": "address",
          "name": "voter",
          "type": "address"
        },
        {
          "indexed": false,
          "internalType": "bool",
          "name": "support",
          "type": "bool"
        },
        {
          "indexed": false,
          "internalType": "uint256",
          "name": "votes",
          "type": "uint256"
        }
      ],
      "name": "Voted",
      "type": "event"
    },
    {
      "inputs": [
        {
          "internalType": "address",
          "name": "",
          "type": "address"
        }
      ],
      "name": "authorizedSpenders",
      "outputs": [
        {
          "internalType": "bool",
          "name": "",
          "type": "bool"
        }
      ],
      "stateMutability": "view",
      "type": "function"
    },
    {
      "inputs": [
        {
          "internalType": "uint256",
          "name": "_proposalId",
          "type": "uint256"
        }
      ],
      "name": "canExecute",
      "outputs": [
        {
          "internalType": "bool",
          "name": "",
          "type": "bool"
        }
      ],
      "stateMutability": "view",
      "type": "function"
    },
    {
      "inputs": [
        {
          "internalType": "uint256",
          "name": "_proposalId",
          "type": "uint256"
        }
      ],
      "name": "cancelProposal",
      "outputs": [],
      "stateMutability": "nonpayable",
      "type": "function"
    },
    {
      "inputs": [
        {
          "internalType": "string",
          "name": "_description",
          "type": "string"
        },
        {
          "internalType": "address",
          "name": "_recipient",
          "type": "address"
        },
        {
          "internalType": "uint256",
          "name": "_amount",
          "type": "uint256"
        },
        {
          "internalType": "address",
          "name": "_token",
          "type": "address"
        },
        {
          "internalType": "enum Treasury.ProposalType",
          "name": "_proposalType",
          "type": "uint8"
        }
      ],
      "name": "createProposal",
      "outputs": [
        {
          "internalType": "uint256",
          "name": "",
          "type": "uint256"
        }
      ],
      "stateMutability": "nonpayable",
      "type": "function"
    },
    {
      "inputs": [
        {
          "internalType": "address",
          "name": "_token",
          "type": "address"
        },
        {
          "internalType": "address",
          "name": "_recipient",
          "type": "address"
        },
        {
          "internalType": "uint256",
          "name": "_amount",
          "type": "uint256"
        }
      ],
      "name": "emergencyWithdraw",
      "outputs": [],
      "stateMutability": "nonpayable",
      "type": "function"
    },
    {
      "inputs": [
        {
          "internalType": "uint256",
          "name": "_proposalId",
          "type": "uint256"
        }
      ],
      "name": "executeProposal",
      "outputs": [],
      "stateMutability": "nonpayable",
      "type": "function"
    },
    {
      "inputs": [],
      "name": "executionDelay",
      "outputs": [
        {
          "internalType": "uint256",
          "name": "",
          "type": "uint256"
        }
      ],
      "stateMutability": "view",
      "type": "function"
    },
    {
      "inputs": [
        {
          "internalType": "address",
          "name": "_token",
          "type": "address"
        }
      ],
      "name": "getBalance",
      "outputs": [
        {
          "internalType": "uint256",
          "name": "",
          "type": "uint256"
        }
      ],
      "stateMutability": "view",
      "type": "function"
    },
    {
      "inputs": [
        {
          "internalType": "uint256",
          "name": "_proposalId",
          "type": "uint256"
        }
      ],
      "name": "getProposal",
      "outputs": [
        {
          "internalType": "address",
          "name": "proposer",
          "type": "address"
        },
        {
          "internalType": "string",
          "name": "description",
          "type": "string"
        },
        {
          "internalType": "address",
          "name": "recipient",
          "type": "address"
        },
        {
          "internalType": "uint256",
          "name": "amount",
          "type": "uint256"
        },
        {
          "internalType": "address",
          "name": "token",
          "type": "address"
        },
        {
          "internalType": "uint256",
          "name": "votesFor",
          "type": "uint256"
        },
        {
          "internalType": "uint256",
          "name": "votesAgainst",
          "type": "uint256"
        },
        {
          "internalType": "uint256",
          "name": "startTime",
          "type": "uint256"
        },
        {
          "internalType": "uint256",
          "name": "endTime",
          "type": "uint256"
        },
        {
          "internalType": "bool",
          "name": "executed",
          "type": "bool"
        },
        {
          "internalType": "bool",
          "name": "cancelled",
          "type": "bool"
        }
      ],
      "stateMutability": "view",
      "type": "function"
    },
    {
      "inputs": [],
      "name": "governanceToken",
      "outputs": [
        {
          "internalType": "address",
          "name": "",
          "type": "address"
        }
      ],
      "stateMutability": "view",
      "type": "function"
    },
    {
      "inputs": [
        {
          "internalType": "uint256",
          "name": "",
          "type": "uint256"
        },
        {
          "internalType": "address",
          "name": "",
          "type": "address"
        }
      ],
      "name": "hasVoted",
      "outputs": [
        {
          "internalType": "bool",
          "name": "",
          "type": "bool"
        }
      ],
      "stateMutability": "view",
      "type": "function"
    },
    {
      "inputs": [],
      "name": "minQuorum",
      "outputs": [
        {
          "internalType": "uint256",
          "name": "",
          "type": "uint256"
        }
      ],
      "stateMutability": "view",
      "type": "function"
    },
    {
      "inputs": [],
      "name": "nextProposalId",
      "outputs": [
        {
          "internalType": "uint256",
          "name": "",
          "type": "uint256"
        }
      ],
      "stateMutability": "view",
      "type": "function"
    },
    {
      "inputs": [],
      "name": "owner",
      "outputs": [
        {
          "internalType": "address",
          "name": "",
          "type": "address"
        }
      ],
      "stateMutability": "view",
      "type": "function"
    },
    {
      "inputs": [
        {
          "internalType": "uint256",
          "name": "",
          "type": "uint256"
        }
      ],
      "name": "proposals",
      "outputs": [
        {
          "internalType": "uint256",
          "name": "id",
          "type": "uint256"
        },
        {
          "internalType": "address",
          "name": "proposer",
          "type": "address"
        },
        {
          "internalType": "string",
          "name": "description",
          "type": "string"
        },
        {
          "internalType": "address",
          "name": "recipient",
          "type": "address"
        },
        {
          "internalType": "uint256",
          "name": "amount",
          "type": "uint256"
        },
        {
          "internalType": "address",
          "name": "token",
          "type": "address"
        },
        {
          "internalType": "uint256",
          "name": "votesFor",
          "type": "uint256"
        },
        {
          "internalType": "uint256",
          "name": "votesAgainst",
          "type": "uint256"
        },
        {
          "internalType": "uint256",
          "name": "startTime",
          "type": "uint256"
        },
        {
          "internalType": "uint256",
          "name": "endTime",
          "type": "uint256"
        },
        {
          "internalType": "bool",
          "name": "executed",
          "type": "bool"
        },
        {
          "internalType": "bool",
          "name": "cancelled",
          "type": "bool"
        },
        {
          "internalType": "enum Treasury.ProposalType",
          "name": "proposalType",
          "type": "uint8"
        }
      ],
      "stateMutability": "view",
      "type": "function"
    },
    {
      "inputs": [],
      "name": "renounceOwnership",
      "outputs": [],
      "stateMutability": "nonpayable",
      "type": "function"
    },
    {
      "inputs": [
        {
          "internalType": "address",
          "name": "_spender",
          "type": "address"
        },
        {
          "internalType": "bool",
          "name": "_authorized",
          "type": "bool"
        }
      ],
      "name": "setAuthorizedSpender",
      "outputs": [],
      "stateMutability": "nonpayable",
      "type": "function"
    },
    {
      "inputs": [
        {
          "internalType": "uint256",
          "name": "_delay",
          "type": "uint256"
        }
      ],
      "name": "setExecutionDelay",
      "outputs": [],
      "stateMutability": "nonpayable",
      "type": "function"
    },
    {
      "inputs": [
        {
          "internalType": "uint256",
          "name": "_quorum",
          "type": "uint256"
        }
      ],
      "name": "setMinQuorum",
      "outputs": [],
      "stateMutability": "nonpayable",
      "type": "function"
    },
    {
      "inputs": [
        {
          "internalType": "uint256",
          "name": "_period",
          "type": "uint256"
        }
      ],
      "name": "setVotingPeriod",
      "outputs": [],
      "stateMutability": "nonpayable",
      "type": "function"
    },
    {
      "inputs": [
        {
          "internalType": "address",
          "name": "newOwner",
          "type": "address"
        }
      ],
      "name": "transferOwnership",
      "outputs": [],
      "stateMutability": "nonpayable",
      "type": "function"
    },
    {
      "inputs": [
        {
          "internalType": "uint256",
          "name": "_proposalId",
          "type": "uint256"
        },
        {
          "internalType": "bool",
          "name": "_support",
          "type": "bool"
        }
      ],
      "name": "vote",
      "outputs": [],
      "stateMutability": "nonpayable",
      "type": "function"
    },
    {
      "inputs": [
        {
          "internalType": "uint256",
          "name": "",
          "type": "uint256"
        },
        {
          "internalType": "address",
          "name": "",
          "type": "address"
        }
      ],
      "name": "votes",
      "outputs": [
        {
          "internalType": "uint256",
          "name": "",
          "type": "uint256"
        }
      ],
      "stateMutability": "view",
      "type": "function"
    },
    {
      "inputs": [],
      "name": "votingPeriod",
      "outputs": [
        {
          "internalType": "uint256",
          "name": "",
          "type": "uint256"
        }
      ],
      "stateMutability": "view",
      "type": "function"
    },
    {
      "stateMutability": "payable",
      "type": "receive"
    }
  ],
  "bytecode": "0x608060405262093a80600355600a6004556202a3006005553480156200002457600080fd5b506040516200249c3803806200249c833981016040819052620000479162000144565b60016000556200005733620000f2565b6001600160a01b038116620000b25760405162461bcd60e51b815260206004820152601860248201527f496e76616c696420676f7665726e616e636520746f6b656e0000000000000000604482015260640160405180910390fd5b600680546001600160a01b0319166001600160a01b0392909216919091179055336000908152600a60205260409020805460ff1916600117905562000176565b600180546001600160a01b038381166001600160a01b0319831681179093556040519116919082907f8be0079c531659141344cd1fd0a4f28419497f9722a3daafe3b4186f6b6457e090600090a35050565b6000602082840312156200015757600080fd5b81516001600160a01b03811681146200016f57600080fd5b9392505050565b61231680620001866000396000f3fe60806040526004361061014f5760003560e01c8063c7f758a8116100b6578063e4917d9f1161006f578063e4917d9f1461044e578063e63ea4081461046e578063ea0217cf1461048e578063f2fde38b146104ae578063f8b2cb4f146104ce578063f96dae0a146104ee57600080fd5b8063c7f758a81461034f578063c9d27afe14610386578063cc63604a146103a6578063d23254b4146103c6578063d2454e8d146103fe578063e0a8f6f51461042e57600080fd5b806343859632116101085780634385963214610271578063563909de146102bc578063715018a6146102dc5780638b257989146102f15780638da5cb5b14610307578063b5a127e51461033957600080fd5b8063013cf08b1461019357806302a251a3146101d5578063042f1ba7146101f95780630d61b5191461021b5780632ab09d141461023b57806335679bc61461025157600080fd5b3661018e5760405134815260009033907f6f8a4ef0af7c27d2b604338870c106d39d43e1d4b880d73c04eb6a602403ab909060200160405180910390a3005b600080fd5b34801561019f57600080fd5b506101b36101ae366004611ccf565b61050e565b6040516101cc9d9c9b9a99989796959493929190611d70565b60405180910390f35b3480156101e157600080fd5b506101eb60035481565b6040519081526020016101cc565b34801561020557600080fd5b50610219610214366004611e2a565b61061b565b005b34801561022757600080fd5b50610219610236366004611ccf565b61064e565b34801561024757600080fd5b506101eb60025481565b34801561025d57600080fd5b506101eb61026c366004611e86565b610aef565b34801561027d57600080fd5b506102ac61028c366004611f73565b600860209081526000928352604080842090915290825290205460ff1681565b60405190151581526020016101cc565b3480156102c857600080fd5b506102196102d7366004611ccf565b610e62565b3480156102e857600080fd5b50610219610ebd565b3480156102fd57600080fd5b506101eb60055481565b34801561031357600080fd5b506001546001600160a01b03165b6040516001600160a01b0390911681526020016101cc565b34801561034557600080fd5b506101eb60045481565b34801561035b57600080fd5b5061036f61036a366004611ccf565b610ed1565b6040516101cc9b9a99989796959493929190611f9f565b34801561039257600080fd5b506102196103a1366004612013565b611007565b3480156103b257600080fd5b506102ac6103c1366004611ccf565b6112ad565b3480156103d257600080fd5b506101eb6103e1366004611f73565b600960209081526000928352604080842090915290825290205481565b34801561040a57600080fd5b506102ac610419366004612038565b600a6020526000908152604090205460ff1681565b34801561043a57600080fd5b50610219610449366004611ccf565b6113e6565b34801561045a57600080fd5b50610219610469366004611ccf565b611509565b34801561047a57600080fd5b50610219610489366004612053565b61155a565b34801561049a57600080fd5b506102196104a9366004611ccf565b6117b0565b3480156104ba57600080fd5b506102196104c9366004612038565b611810565b3480156104da57600080fd5b506101eb6104e9366004612038565b611886565b3480156104fa57600080fd5b50600654610321906001600160a01b031681565b60076020526000908152604090208054600182015460028301805492936001600160a01b03909216926105409061208f565b80601f016020809104026020016040519081016040528092919081815260200182805461056c9061208f565b80156105b95780601f1061058e576101008083540402835291602001916105b9565b820191906000526020600020905b81548152906001019060200180831161059c57829003601f168201915b505050506003830154600484015460058501546006860154600787015460088801546009890154600a9099015497986001600160a01b0396871698959750959093169491939092919060ff80821691610100810482169162010000909104168d565b610623611913565b6001600160a01b03919091166000908152600a60205260409020805460ff1916911515919091179055565b61065661196d565b6000818152600760205260409020600981015442116106af5760405162461bcd60e51b815260206004820152601060248201526f159bdd1a5b99c81b9bdd08195b99195960821b60448201526064015b60405180910390fd5b600a81015460ff16156106d45760405162461bcd60e51b81526004016106a6906120c9565b600a810154610100900460ff16156107235760405162461bcd60e51b8152602060048201526012602482015271141c9bdc1bdcd85b0818d85b98d95b1b195960721b60448201526064016106a6565b60055481600901546107359190612109565b4210156107845760405162461bcd60e51b815260206004820152601a60248201527f457865637574696f6e2064656c6179206e6f742070617373656400000000000060448201526064016106a6565b80600701548160060154116107d15760405162461bcd60e51b8152602060048201526013602482015272141c9bdc1bdcd85b081b9bdd081c185cdcd959606a1b60448201526064016106a6565b600654604080516318160ddd60e01b815290516001600160a01b039092169160009183916318160ddd916004808201926020929091908290030181865afa158015610820573d6000803e3d6000fd5b505050506040513d601f19601f820116820180604052508101906108449190612122565b905060008360070154846006015461085c9190612109565b6004549091508261086e83606461213b565b6108789190612152565b10156108bb5760405162461bcd60e51b8152602060048201526012602482015271145d5bdc9d5b481b9bdd081c995858da195960721b60448201526064016106a6565b600a8401805460ff1916600117905560058401546001600160a01b03166109765783600401544710156109305760405162461bcd60e51b815260206004820152601860248201527f496e73756666696369656e74204554482062616c616e6365000000000000000060448201526064016106a6565b600384015460048501546040516001600160a01b039092169181156108fc0291906000818181858888f19350505050158015610970573d6000803e3d6000fd5b50610a61565b60058401546004808601546040516370a0823160e01b815230928101929092526001600160a01b03909216919082906370a0823190602401602060405180830381865afa1580156109cb573d6000803e3d6000fd5b505050506040513d601f19601f820116820180604052508101906109ef9190612122565b1015610a3d5760405162461bcd60e51b815260206004820152601a60248201527f496e73756666696369656e7420746f6b656e2062616c616e636500000000000060448201526064016106a6565b60038501546004860154610a5f916001600160a01b03848116929116906119c6565b505b60405185907f712ae1383f79ac853f8d882153778e0260ef8f03b504e2866e0593e04d2b291f90600090a26005840154600385015460048601546040519081526001600160a01b0392831692909116907fe9171aeff46c37ab955b8aff908e14ae9732bd06634fa131226cfe5c25bfd2fb9060200160405180910390a350505050610aec6001600055565b50565b60006001600160a01b038516610b3b5760405162461bcd60e51b8152602060048201526011602482015270125b9d985b1a59081c9958da5c1a595b9d607a1b60448201526064016106a6565b60008411610b8b5760405162461bcd60e51b815260206004820152601d60248201527f416d6f756e74206d7573742062652067726561746572207468616e203000000060448201526064016106a6565b6006546040516370a0823160e01b81523360048201526001600160a01b039091169060009082906370a0823190602401602060405180830381865afa158015610bd8573d6000803e3d6000fd5b505050506040513d601f19601f82011682018060405250810190610bfc9190612122565b11610c495760405162461bcd60e51b815260206004820152601b60248201527f4d75737420686f6c6420676f7665726e616e636520746f6b656e73000000000060448201526064016106a6565b6002805460009182610c5a83612174565b919050559050604051806101a00160405280828152602001336001600160a01b03168152602001898152602001886001600160a01b03168152602001878152602001866001600160a01b03168152602001600081526020016000815260200142815260200160035442610ccd9190612109565b81526000602082018190526040820152606001856003811115610cf257610cf2611d38565b905260008281526007602090815260409182902083518155908301516001820180546001600160a01b0319166001600160a01b03909216919091179055908201516002820190610d4290826121db565b506060820151600380830180546001600160a01b039384166001600160a01b0319918216179091556080850151600485015560a08501516005850180549190941691161790915560c0830151600683015560e083015160078301556101008084015160088401556101208401516009840155610140840151600a84018054610160870151151590930261ff00199215159290921661ffff1990931692909217178082556101808501519262ff0000199091169062010000908490811115610e0b57610e0b611d38565b0217905550905050336001600160a01b0316817fe0269f7953e70365e80e614e4efe7d4bede59b7f5ad80982ea4064c97ee6f4ef8a87604051610e4f92919061229b565b60405180910390a3979650505050505050565b610e6a611913565b600081118015610e7b575060648111155b610eb85760405162461bcd60e51b815260206004820152600e60248201526d496e76616c69642071756f72756d60901b60448201526064016106a6565b600455565b610ec5611913565b610ecf6000611a18565b565b60008181526007602081905260408220600181015460038201546004830154600584015460068501549585015460088601546009870154600a88015460028901805460609b8d9b8c9b8c9b8c9b8c9b8c9b8c9b8c9b8c9b979a6001600160a01b039788169a9099968816989597909416959492939192909160ff80831692610100900416908a90610f619061208f565b80601f0160208091040260200160405190810160405280929190818152602001828054610f8d9061208f565b8015610fda5780601f10610faf57610100808354040283529160200191610fda565b820191906000526020600020905b815481529060010190602001808311610fbd57829003601f168201915b505050505099509b509b509b509b509b509b509b509b509b509b509b505091939597999b90929496989a50565b61100f61196d565b600082815260076020526040902060098101544211156110605760405162461bcd60e51b815260206004820152600c60248201526b159bdd1a5b99c8195b99195960a21b60448201526064016106a6565b600a81015460ff16156110855760405162461bcd60e51b81526004016106a6906120c9565b600a810154610100900460ff16156110d45760405162461bcd60e51b8152602060048201526012602482015271141c9bdc1bdcd85b0818d85b98d95b1b195960721b60448201526064016106a6565b600083815260086020908152604080832033845290915290205460ff161561112e5760405162461bcd60e51b815260206004820152600d60248201526c105b1c9958591e481d9bdd1959609a1b60448201526064016106a6565b6006546040516370a0823160e01b81523360048201526001600160a01b039091169060009082906370a0823190602401602060405180830381865afa15801561117b573d6000803e3d6000fd5b505050506040513d601f19601f8201168201806040525081019061119f9190612122565b9050600081116111e35760405162461bcd60e51b815260206004820152600f60248201526e2737903b37ba34b733903837bbb2b960891b60448201526064016106a6565b600085815260086020908152604080832033808552908352818420805460ff19166001179055888452600983528184209084529091529020819055831561124357808360060160008282546112389190612109565b9091555061125d9050565b808360070160008282546112579190612109565b90915550505b60408051851515815260208101839052339187917f7c2de587c00d75474a0c6c6fa96fd3b45dc974cd4e8a75f712bb84c950dce1b5910160405180910390a35050506112a96001600055565b5050565b6000818152600760205260408120600a81015460ff16806112d75750600a810154610100900460ff165b156112e55750600092915050565b806009015442116112f95750600092915050565b600554816009015461130b9190612109565b42101561131b5750600092915050565b80600701548160060154116113335750600092915050565b600654604080516318160ddd60e01b815290516001600160a01b039092169160009183916318160ddd916004808201926020929091908290030181865afa158015611382573d6000803e3d6000fd5b505050506040513d601f19601f820116820180604052508101906113a69190612122565b90506000836007015484600601546113be9190612109565b600454909150826113d083606461213b565b6113da9190612152565b10159695505050505050565b600081815260076020526040902060018101546001600160a01b031633148061141957506001546001600160a01b031633145b6114565760405162461bcd60e51b815260206004820152600e60248201526d139bdd08185d5d1a1bdc9a5e995960921b60448201526064016106a6565b600a81015460ff161561147b5760405162461bcd60e51b81526004016106a6906120c9565b600a810154610100900460ff16156114c95760405162461bcd60e51b8152602060048201526011602482015270105b1c9958591e4818d85b98d95b1b1959607a1b60448201526064016106a6565b600a8101805461ff00191661010017905560405182907f416e669c63d9a3a5e36ee7cc7e2104b8db28ccd286aa18966e98fa230c73b08c90600090a25050565b611511611913565b62093a808111156115555760405162461bcd60e51b815260206004820152600e60248201526d44656c617920746f6f206c6f6e6760901b60448201526064016106a6565b600555565b61156261196d565b336000908152600a602052604090205460ff166115b25760405162461bcd60e51b815260206004820152600e60248201526d139bdd08185d5d1a1bdc9a5e995960921b60448201526064016106a6565b6001600160a01b0382166115fc5760405162461bcd60e51b8152602060048201526011602482015270125b9d985b1a59081c9958da5c1a595b9d607a1b60448201526064016106a6565b6001600160a01b03831661168d57804710156116515760405162461bcd60e51b8152602060048201526014602482015273496e73756666696369656e742062616c616e636560601b60448201526064016106a6565b6040516001600160a01b0383169082156108fc029083906000818181858888f19350505050158015611687573d6000803e3d6000fd5b50611754565b6040516370a0823160e01b8152306004820152839082906001600160a01b038316906370a0823190602401602060405180830381865afa1580156116d5573d6000803e3d6000fd5b505050506040513d601f19601f820116820180604052508101906116f99190612122565b101561173e5760405162461bcd60e51b8152602060048201526014602482015273496e73756666696369656e742062616c616e636560601b60448201526064016106a6565b6117526001600160a01b03821684846119c6565b505b826001600160a01b0316826001600160a01b03167fe9171aeff46c37ab955b8aff908e14ae9732bd06634fa131226cfe5c25bfd2fb8360405161179991815260200190565b60405180910390a36117ab6001600055565b505050565b6117b8611913565b6201518081101580156117ce575062278d008111155b61180b5760405162461bcd60e51b815260206004820152600e60248201526d125b9d985b1a59081c195c9a5bd960921b60448201526064016106a6565b600355565b611818611913565b6001600160a01b03811661187d5760405162461bcd60e51b815260206004820152602660248201527f4f776e61626c653a206e6577206f776e657220697320746865207a65726f206160448201526564647265737360d01b60648201526084016106a6565b610aec81611a18565b60006001600160a01b03821661189d575047919050565b6040516370a0823160e01b815230600482015282906001600160a01b038216906370a0823190602401602060405180830381865afa1580156118e3573d6000803e3d6000fd5b505050506040513d601f19601f820116820180604052508101906119079190612122565b9392505050565b919050565b6001546001600160a01b03163314610ecf5760405162461bcd60e51b815260206004820181905260248201527f4f776e61626c653a2063616c6c6572206973206e6f7420746865206f776e657260448201526064016106a6565b6002600054036119bf5760405162461bcd60e51b815260206004820152601f60248201527f5265656e7472616e637947756172643a207265656e7472616e742063616c6c0060448201526064016106a6565b6002600055565b604080516001600160a01b038416602482015260448082018490528251808303909101815260649091019091526020810180516001600160e01b031663a9059cbb60e01b1790526117ab908490611a6a565b600180546001600160a01b038381166001600160a01b0319831681179093556040519116919082907f8be0079c531659141344cd1fd0a4f28419497f9722a3daafe3b4186f6b6457e090600090a35050565b6000611abf826040518060400160405280602081526020017f5361666545524332303a206c6f772d6c6576656c2063616c6c206661696c6564815250856001600160a01b0316611b3f9092919063ffffffff16565b9050805160001480611ae0575080806020019051810190611ae091906122bd565b6117ab5760405162461bcd60e51b815260206004820152602a60248201527f5361666545524332303a204552433230206f7065726174696f6e20646964206e6044820152691bdd081cdd58d8d9595960b21b60648201526084016106a6565b6060611b4e8484600085611b56565b949350505050565b606082471015611bb75760405162461bcd60e51b815260206004820152602660248201527f416464726573733a20696e73756666696369656e742062616c616e636520666f6044820152651c8818d85b1b60d21b60648201526084016106a6565b600080866001600160a01b03168587604051611bd391906122da565b60006040518083038185875af1925050503d8060008114611c10576040519150601f19603f3d011682016040523d82523d6000602084013e611c15565b606091505b5091509150611c2687838387611c31565b979650505050505050565b60608315611ca0578251600003611c99576001600160a01b0385163b611c995760405162461bcd60e51b815260206004820152601d60248201527f416464726573733a2063616c6c20746f206e6f6e2d636f6e747261637400000060448201526064016106a6565b5081611b4e565b611b4e8383815115611cb55781518083602001fd5b8060405162461bcd60e51b81526004016106a691906122f6565b600060208284031215611ce157600080fd5b5035919050565b60005b83811015611d03578181015183820152602001611ceb565b50506000910152565b60008151808452611d24816020860160208601611ce8565b601f01601f19169290920160200192915050565b634e487b7160e01b600052602160045260246000fd5b60048110611d6c57634e487b7160e01b600052602160045260246000fd5b9052565b8d8152600060018060a01b03808f1660208401526101a06040840152611d9a6101a084018f611d0c565b9150808d1660608401528b6080840152808b1660a0840152508860c08301528760e08301528661010083015285610120830152841515610140830152611de561016083018515159052565b611df3610180830184611d4e565b9e9d5050505050505050505050505050565b80356001600160a01b038116811461190e57600080fd5b8015158114610aec57600080fd5b60008060408385031215611e3d57600080fd5b611e4683611e05565b91506020830135611e5681611e1c565b809150509250929050565b634e487b7160e01b600052604160045260246000fd5b80356004811061190e57600080fd5b600080600080600060a08688031215611e9e57600080fd5b853567ffffffffffffffff80821115611eb657600080fd5b818801915088601f830112611eca57600080fd5b813581811115611edc57611edc611e61565b604051601f8201601f19908116603f01168101908382118183101715611f0457611f04611e61565b816040528281528b6020848701011115611f1d57600080fd5b826020860160208301376000602084830101528099505050505050611f4460208701611e05565b935060408601359250611f5960608701611e05565b9150611f6760808701611e77565b90509295509295909350565b60008060408385031215611f8657600080fd5b82359150611f9660208401611e05565b90509250929050565b6001600160a01b038c8116825261016060208301819052600091611fc58483018f611d0c565b9c81166040850152606084019b909b52505096909716608087015260a086019490945260c085019290925260e084015261010083015215156101208201529015156101409091015292915050565b6000806040838503121561202657600080fd5b823591506020830135611e5681611e1c565b60006020828403121561204a57600080fd5b61190782611e05565b60008060006060848603121561206857600080fd5b61207184611e05565b925061207f60208501611e05565b9150604084013590509250925092565b600181811c908216806120a357607f821691505b6020821081036120c357634e487b7160e01b600052602260045260246000fd5b50919050565b60208082526010908201526f105b1c9958591e48195e1958dd5d195960821b604082015260600190565b634e487b7160e01b600052601160045260246000fd5b8082018082111561211c5761211c6120f3565b92915050565b60006020828403121561213457600080fd5b5051919050565b808202811582820484141761211c5761211c6120f3565b60008261216f57634e487b7160e01b600052601260045260246000fd5b500490565b600060018201612186576121866120f3565b5060010190565b601f8211156117ab57600081815260208120601f850160051c810160208610156121b45750805b601f850160051c820191505b818110156121d3578281556001016121c0565b505050505050565b815167ffffffffffffffff8111156121f5576121f5611e61565b61220981612203845461208f565b8461218d565b602080601f83116001811461223e57600084156122265750858301515b600019600386901b1c1916600185901b1785556121d3565b600085815260208120601f198616915b8281101561226d5788860151825594840194600190910190840161224e565b508582101561228b5787850151600019600388901b60f8161c191681555b5050505050600190811b01905550565b6040815260006122ae6040830185611d0c565b90506119076020830184611d4e565b6000602082840312156122cf57600080fd5b815161190781611e1c565b600082516122ec818460208701611ce8565b9190910192915050565b6020815260006119076020830184611d0c56fea164736f6c6343000813000a",
  "linkReferences": {},
  "deployedLinkReferences": {}
}