{
  "_format": "hh-sol-artifact-1",
  "contractName": "TokenGating",
  "sourceName": "contracts/TokenGating.sol",
  "abi": [
    {
      "inputs": [],
      "stateMutability": "nonpayable",
      "type": "constructor"
    },
    {
      "anonymous": false,
      "inputs": [
        {
          "indexed": true,
          "internalType": "uint256",
          "name": "gateId",
          "type": "uint256"
        },
        {
          "indexed": true,
          "internalType": "address",
          "name": "user",
          "type": "address"
        }
      ],
      "name": "AccessGranted",
      "type": "event"
    },
    {
      "anonymous": false,
      "inputs": [
        {
          "indexed": true,
          "internalType": "uint256",
          "name": "gateId",
          "type": "uint256"
        },
        {
          "indexed": true,
          "internalType": "address",
          "name": "user",
          "type": "address"
        }
      ],
      "name": "AccessRevoked",
      "type": "event"
    },
    {
      "anonymous": false,
      "inputs": [
        {
          "indexed": true,
          "internalType": "uint256",
          "name": "gateId",
          "type": "uint256"
        },
        {
          "indexed": false,
          "internalType": "string",
          "name": "name",
          "type": "string"
        }
      ],
      "name": "GateCreated",
      "type": "event"
    },
    {
      "anonymous": false,
      "inputs": [
        {
          "indexed": true,
          "internalType": "address",
          "name": "previousOwner",
          "type": "address"
        },
        {
          "indexed": true,
          "internalType": "address",
          "name": "newOwner",
          "type": "address"
        }
      ],
      "name": "OwnershipTransferred",
      "type": "event"
    },
    {
      "anonymous": false,
      "inputs": [
        {
          "indexed": true,
          "internalType": "uint256",
          "name": "requirementId",
          "type": "uint256"
        },
        {
          "indexed": true,
          "internalType": "address",
          "name": "tokenAddress",
          "type": "address"
        },
        {
          "indexed": false,
          "internalType": "uint256",
          "name": "minAmount",
          "type": "uint256"
        },
        {
          "indexed": false,
          "internalType": "bool",
          "name": "isNFT",
          "type": "bool"
        }
      ],
      "name": "RequirementCreated",
      "type": "event"
    },
    {
      "inputs": [
        {
          "internalType": "uint256",
          "name": "",
          "type": "uint256"
        },
        {
          "internalType": "address",
          "name": "",
          "type": "address"
        }
      ],
      "name": "accessTimestamp",
      "outputs": [
        {
          "internalType": "uint256",
          "name": "",
          "type": "uint256"
        }
      ],
      "stateMutability": "view",
      "type": "function"
    },
    {
      "inputs": [
        {
          "internalType": "string",
          "name": "_name",
          "type": "string"
        },
        {
          "internalType": "string",
          "name": "_description",
          "type": "string"
        },
        {
          "internalType": "uint256[]",
          "name": "_requirementIds",
          "type": "uint256[]"
        },
        {
          "internalType": "bool",
          "name": "_requireAll",
          "type": "bool"
        }
      ],
      "name": "createGate",
      "outputs": [
        {
          "internalType": "uint256",
          "name": "",
          "type": "uint256"
        }
      ],
      "stateMutability": "nonpayable",
      "type": "function"
    },
    {
      "inputs": [
        {
          "internalType": "address",
          "name": "_tokenAddress",
          "type": "address"
        },
        {
          "internalType": "uint256",
          "name": "_minAmount",
          "type": "uint256"
        },
        {
          "internalType": "bool",
          "name": "_isNFT",
          "type": "bool"
        }
      ],
      "name": "createRequirement",
      "outputs": [
        {
          "internalType": "uint256",
          "name": "",
          "type": "uint256"
        }
      ],
      "stateMutability": "nonpayable",
      "type": "function"
    },
    {
      "inputs": [
        {
          "internalType": "uint256",
          "name": "",
          "type": "uint256"
        }
      ],
      "name": "gates",
      "outputs": [
        {
          "internalType": "string",
          "name": "name",
          "type": "string"
        },
        {
          "internalType": "string",
          "name": "description",
          "type": "string"
        },
        {
          "internalType": "bool",
          "name": "requireAll",
          "type": "bool"
        },
        {
          "internalType": "bool",
          "name": "isActive",
          "type": "bool"
        },
        {
          "internalType": "uint256",
          "name": "accessCount",
          "type": "uint256"
        }
      ],
      "stateMutability": "view",
      "type": "function"
    },
    {
      "inputs": [
        {
          "internalType": "uint256",
          "name": "_gateId",
          "type": "uint256"
        }
      ],
      "name": "getGateRequirements",
      "outputs": [
        {
          "internalType": "uint256[]",
          "name": "",
          "type": "uint256[]"
        }
      ],
      "stateMutability": "view",
      "type": "function"
    },
    {
      "inputs": [
        {
          "internalType": "uint256",
          "name": "_gateId",
          "type": "uint256"
        },
        {
          "internalType": "address",
          "name": "_user",
          "type": "address"
        }
      ],
      "name": "grantAccess",
      "outputs": [],
      "stateMutability": "nonpayable",
      "type": "function"
    },
    {
      "inputs": [
        {
          "internalType": "uint256",
          "name": "_gateId",
          "type": "uint256"
        },
        {
          "internalType": "address",
          "name": "_user",
          "type": "address"
        }
      ],
      "name": "hasAccess",
      "outputs": [
        {
          "internalType": "bool",
          "name": "",
          "type": "bool"
        }
      ],
      "stateMutability": "view",
      "type": "function"
    },
    {
      "inputs": [
        {
          "internalType": "uint256",
          "name": "_requirementId",
          "type": "uint256"
        },
        {
          "internalType": "address",
          "name": "_user",
          "type": "address"
        }
      ],
      "name": "meetsRequirement",
      "outputs": [
        {
          "internalType": "bool",
          "name": "",
          "type": "bool"
        }
      ],
      "stateMutability": "view",
      "type": "function"
    },
    {
      "inputs": [],
      "name": "nextGateId",
      "outputs": [
        {
          "internalType": "uint256",
          "name": "",
          "type": "uint256"
        }
      ],
      "stateMutability": "view",
      "type": "function"
    },
    {
      "inputs": [],
      "name": "nextRequirementId",
      "outputs": [
        {
          "internalType": "uint256",
          "name": "",
          "type": "uint256"
        }
      ],
      "stateMutability": "view",
      "type": "function"
    },
    {
      "inputs": [],
      "name": "owner",
      "outputs": [
        {
          "internalType": "address",
          "name": "",
          "type": "address"
        }
      ],
      "stateMutability": "view",
      "type": "function"
    },
    {
      "inputs": [],
      "name": "renounceOwnership",
      "outputs": [],
      "stateMutability": "nonpayable",
      "type": "function"
    },
    {
      "inputs": [
        {
          "internalType": "uint256",
          "name": "",
          "type": "uint256"
        }
      ],
      "name": "requirements",
      "outputs": [
        {
          "internalType": "address",
          "name": "tokenAddress",
          "type": "address"
        },
        {
          "internalType": "uint256",
          "name": "minAmount",
          "type": "uint256"
        },
        {
          "internalType": "bool",
          "name": "isNFT",
          "type": "bool"
        },
        {
          "internalType": "bool",
          "name": "isActive",
          "type": "bool"
        }
      ],
      "stateMutability": "view",
      "type": "function"
    },
    {
      "inputs": [
        {
          "internalType": "uint256",
          "name": "_gateId",
          "type": "uint256"
        },
        {
          "internalType": "address",
          "name": "_user",
          "type": "address"
        }
      ],
      "name": "revokeAccess",
      "outputs": [],
      "stateMutability": "nonpayable",
      "type": "function"
    },
    {
      "inputs": [
        {
          "internalType": "uint256",
          "name": "_gateId",
          "type": "uint256"
        },
        {
          "internalType": "bool",
          "name": "_isActive",
          "type": "bool"
        }
      ],
      "name": "setGateActive",
      "outputs": [],
      "stateMutability": "nonpayable",
      "type": "function"
    },
    {
      "inputs": [
        {
          "internalType": "uint256",
          "name": "_requirementId",
          "type": "uint256"
        },
        {
          "internalType": "bool",
          "name": "_isActive",
          "type": "bool"
        }
      ],
      "name": "setRequirementActive",
      "outputs": [],
      "stateMutability": "nonpayable",
      "type": "function"
    },
    {
      "inputs": [
        {
          "internalType": "address",
          "name": "newOwner",
          "type": "address"
        }
      ],
      "name": "transferOwnership",
      "outputs": [],
      "stateMutability": "nonpayable",
      "type": "function"
    },
    {
      "inputs": [
        {
          "internalType": "uint256",
          "name": "",
          "type": "uint256"
        },
        {
          "internalType": "address",
          "name": "",
          "type": "address"
        }
      ],
      "name": "userAccess",
      "outputs": [
        {
          "internalType": "bool",
          "name": "",
          "type": "bool"
        }
      ],
      "stateMutability": "view",
      "type": "function"
    }
  ],
  "bytecode": "0x608060405234801561001057600080fd5b5061001a33610023565b60018055610073565b600080546001600160a01b038381166001600160a01b0319831681178455604051919092169283917f8be0079c531659141344cd1fd0a4f28419497f9722a3daafe3b4186f6b6457e09190a35050565b611215806100826000396000f3fe608060405234801561001057600080fd5b50600436106101165760003560e01c8063a25a8f23116100a2578063ccca801411610071578063ccca8014146102c8578063ced14198146102e8578063d9a5ec1b146102fb578063e73012d61461030e578063f2fde38b1461032157600080fd5b8063a25a8f2314610218578063a69c19c01461028f578063c8fcc96d146102a2578063caf258b7146102b557600080fd5b80633d783d7b116100e95780633d783d7b146101b357806362bf9b15146101d757806365dd152c146101e0578063715018a6146101f55780638da5cb5b146101fd57600080fd5b80630113af3f1461011b5780630e918ec91461013757806310f42ba91461017557806336e70e16146101a0575b600080fd5b61012460025481565b6040519081526020015b60405180910390f35b610165610145366004610cfe565b600660209081526000928352604080842090915290825290205460ff1681565b604051901515815260200161012e565b610124610183366004610cfe565b600760209081526000928352604080842090915290825290205481565b6101656101ae366004610cfe565b610334565b6101c66101c1366004610d2a565b610428565b60405161012e959493929190610d89565b61012460035481565b6101f36101ee366004610cfe565b61056d565b005b6101f36106a0565b6000546040516001600160a01b03909116815260200161012e565b61025d610226366004610d2a565b6004602052600090815260409020805460018201546002909201546001600160a01b03909116919060ff8082169161010090041684565b604080516001600160a01b0390951685526020850193909352901515918301919091521515606082015260800161012e565b61012461029d366004610ddc565b6106b4565b6101246102b0366004610ecf565b6107a3565b6101f36102c3366004610fcd565b6108c4565b6102db6102d6366004610d2a565b6108f6565b60405161012e9190610ff0565b6101656102f6366004610cfe565b61095b565b6101f3610309366004610cfe565b610a49565b6101f361031c366004610fcd565b610ad4565b6101f361032f366004611034565b610b06565b60008281526004602052604081206002810154610100900460ff1661035d576000915050610422565b600281015460ff16156103ea57805460018201546040516370a0823160e01b81526001600160a01b0386811660048301529092169182906370a08231906024015b602060405180830381865afa1580156103bb573d6000803e3d6000fd5b505050506040513d601f19601f820116820180604052508101906103df9190611056565b101592505050610422565b805460018201546040516370a0823160e01b81526001600160a01b0386811660048301529092169182906370a082319060240161039e565b92915050565b6005602052600090815260409020805481906104439061106f565b80601f016020809104026020016040519081016040528092919081815260200182805461046f9061106f565b80156104bc5780601f10610491576101008083540402835291602001916104bc565b820191906000526020600020905b81548152906001019060200180831161049f57829003601f168201915b5050505050908060010180546104d19061106f565b80601f01602080910402602001604051908101604052809291908181526020018280546104fd9061106f565b801561054a5780601f1061051f5761010080835404028352916020019161054a565b820191906000526020600020905b81548152906001019060200180831161052d57829003601f168201915b505050506003830154600490930154919260ff8082169361010090920416915085565b610575610b7f565b61057f828261095b565b6105d05760405162461bcd60e51b815260206004820152601f60248201527f5573657220646f6573206e6f74206d65657420726571756972656d656e74730060448201526064015b60405180910390fd5b60008281526006602090815260408083206001600160a01b038516845290915290205460ff166106935760008281526006602090815260408083206001600160a01b038516808552908352818420805460ff1916600117905585845260078352818420908452825280832042905584835260059091528120600401805491610657836110a9565b90915550506040516001600160a01b0382169083907f3c3a9147a1fc73dd51a32f4d10c43d457e8cb826eb6f35cac6349eb965ba82b490600090a35b61069c60018055565b5050565b6106a8610bd8565b6106b26000610c32565b565b60006106be610bd8565b60028054600091826106cf836110a9565b90915550604080516080810182526001600160a01b0388811680835260208084018a815289151585870181815260016060880181815260008b8152600487528a9020985189546001600160a01b0319169816979097178855925192870192909255905160029095018054945161ffff1990951695151561ff00191695909517610100941515949094029390931790935583518981529283019190915292935083917fa014655a321e0038fe56e96e6b25be5acf07540b7adf8cdea80fe1777ad0da0e910160405180910390a3949350505050565b60006107ad610bd8565b60038054600091826107be836110a9565b909155506040805160c0810182528881526020808201899052818301889052861515606083015260016080830152600060a08301819052848152600590915291909120815192935090918190610814908261111f565b5060208201516001820190610829908261111f565b5060408201518051610845916002840191602090910190610c82565b506060820151600382018054608085015115156101000261ff00199315159390931661ffff199091161791909117905560a09091015160049091015560405181907f1850311bdb98f8ed157aca3f8c5de84502698d61fb157226cbd7f55b0e043225906108b39089906111df565b60405180910390a295945050505050565b6108cc610bd8565b60009182526004602052604090912060020180549115156101000261ff0019909216919091179055565b60008181526005602090815260409182902060020180548351818402810184019094528084526060939283018282801561094f57602002820191906000526020600020905b81548152602001906001019080831161093b575b50505050509050919050565b60008281526005602052604081206003810154610100900460ff16610984576000915050610422565b600381015460ff16156109f55760005b60028201548110156109ea576109c98260020182815481106109b8576109b86111f2565b906000526020600020015485610334565b6109d857600092505050610422565b806109e2816110a9565b915050610994565b506001915050610422565b60005b6002820154811015610a3e57610a1c8260020182815481106109b8576109b86111f2565b15610a2c57600192505050610422565b80610a36816110a9565b9150506109f8565b506000915050610422565b610a51610bd8565b60008281526006602090815260408083206001600160a01b038516845290915290205460ff161561069c5760008281526006602090815260408083206001600160a01b0385168085529252808320805460ff1916905551909184917f125883b94692baebecad9f111ed97ffa626523bbbadc6b0ef85ee1b56b9e52d59190a35050565b610adc610bd8565b60009182526005602052604090912060030180549115156101000261ff0019909216919091179055565b610b0e610bd8565b6001600160a01b038116610b735760405162461bcd60e51b815260206004820152602660248201527f4f776e61626c653a206e6577206f776e657220697320746865207a65726f206160448201526564647265737360d01b60648201526084016105c7565b610b7c81610c32565b50565b600260015403610bd15760405162461bcd60e51b815260206004820152601f60248201527f5265656e7472616e637947756172643a207265656e7472616e742063616c6c0060448201526064016105c7565b6002600155565b6000546001600160a01b031633146106b25760405162461bcd60e51b815260206004820181905260248201527f4f776e61626c653a2063616c6c6572206973206e6f7420746865206f776e657260448201526064016105c7565b600080546001600160a01b038381166001600160a01b0319831681178455604051919092169283917f8be0079c531659141344cd1fd0a4f28419497f9722a3daafe3b4186f6b6457e09190a35050565b828054828255906000526020600020908101928215610cbd579160200282015b82811115610cbd578251825591602001919060010190610ca2565b50610cc9929150610ccd565b5090565b5b80821115610cc95760008155600101610cce565b80356001600160a01b0381168114610cf957600080fd5b919050565b60008060408385031215610d1157600080fd5b82359150610d2160208401610ce2565b90509250929050565b600060208284031215610d3c57600080fd5b5035919050565b6000815180845260005b81811015610d6957602081850181015186830182015201610d4d565b506000602082860101526020601f19601f83011685010191505092915050565b60a081526000610d9c60a0830188610d43565b8281036020840152610dae8188610d43565b95151560408401525050911515606083015260809091015292915050565b80358015158114610cf957600080fd5b600080600060608486031215610df157600080fd5b610dfa84610ce2565b925060208401359150610e0f60408501610dcc565b90509250925092565b634e487b7160e01b600052604160045260246000fd5b604051601f8201601f1916810167ffffffffffffffff81118282101715610e5757610e57610e18565b604052919050565b600082601f830112610e7057600080fd5b813567ffffffffffffffff811115610e8a57610e8a610e18565b610e9d601f8201601f1916602001610e2e565b818152846020838601011115610eb257600080fd5b816020850160208301376000918101602001919091529392505050565b60008060008060808587031215610ee557600080fd5b843567ffffffffffffffff80821115610efd57600080fd5b610f0988838901610e5f565b9550602091508187013581811115610f2057600080fd5b610f2c89828a01610e5f565b955050604087013581811115610f4157600080fd5b8701601f81018913610f5257600080fd5b803582811115610f6457610f64610e18565b8060051b9250610f75848401610e2e565b818152928201840192848101908b851115610f8f57600080fd5b928501925b84841015610fad57833582529285019290850190610f94565b809750505050505050610fc260608601610dcc565b905092959194509250565b60008060408385031215610fe057600080fd5b82359150610d2160208401610dcc565b6020808252825182820181905260009190848201906040850190845b818110156110285783518352928401929184019160010161100c565b50909695505050505050565b60006020828403121561104657600080fd5b61104f82610ce2565b9392505050565b60006020828403121561106857600080fd5b5051919050565b600181811c9082168061108357607f821691505b6020821081036110a357634e487b7160e01b600052602260045260246000fd5b50919050565b6000600182016110c957634e487b7160e01b600052601160045260246000fd5b5060010190565b601f82111561111a57600081815260208120601f850160051c810160208610156110f75750805b601f850160051c820191505b8181101561111657828155600101611103565b5050505b505050565b815167ffffffffffffffff81111561113957611139610e18565b61114d81611147845461106f565b846110d0565b602080601f831160018114611182576000841561116a5750858301515b600019600386901b1c1916600185901b178555611116565b600085815260208120601f198616915b828110156111b157888601518255948401946001909101908401611192565b50858210156111cf5787850151600019600388901b60f8161c191681555b5050505050600190811b01905550565b60208152600061104f6020830184610d43565b634e487b7160e01b600052603260045260246000fdfea164736f6c6343000813000a",
  "linkReferences": {},
  "deployedLinkReferences": {}
}