{
  "_format": "hh-sol-artifact-1",
  "contractName": "TippingContract",
  "sourceName": "contracts/TippingContract.sol",
  "abi": [
    {
      "inputs": [
        {
          "internalType": "address",
          "name": "_feeRecipient",
          "type": "address"
        },
        {
          "internalType": "address",
          "name": "_crybToken",
          "type": "address"
        }
      ],
      "stateMutability": "nonpayable",
      "type": "constructor"
    },
    {
      "anonymous": false,
      "inputs": [
        {
          "indexed": false,
          "internalType": "uint256",
          "name": "newFee",
          "type": "uint256"
        }
      ],
      "name": "FeeUpdated",
      "type": "event"
    },
    {
      "anonymous": false,
      "inputs": [
        {
          "indexed": true,
          "internalType": "address",
          "name": "previousOwner",
          "type": "address"
        },
        {
          "indexed": true,
          "internalType": "address",
          "name": "newOwner",
          "type": "address"
        }
      ],
      "name": "OwnershipTransferred",
      "type": "event"
    },
    {
      "anonymous": false,
      "inputs": [
        {
          "indexed": true,
          "internalType": "uint256",
          "name": "tipId",
          "type": "uint256"
        },
        {
          "indexed": true,
          "internalType": "address",
          "name": "from",
          "type": "address"
        },
        {
          "indexed": true,
          "internalType": "address",
          "name": "to",
          "type": "address"
        },
        {
          "indexed": false,
          "internalType": "uint256",
          "name": "amount",
          "type": "uint256"
        },
        {
          "indexed": false,
          "internalType": "address",
          "name": "token",
          "type": "address"
        },
        {
          "indexed": false,
          "internalType": "string",
          "name": "message",
          "type": "string"
        }
      ],
      "name": "TipSent",
      "type": "event"
    },
    {
      "anonymous": false,
      "inputs": [
        {
          "indexed": true,
          "internalType": "address",
          "name": "token",
          "type": "address"
        },
        {
          "indexed": false,
          "internalType": "bool",
          "name": "supported",
          "type": "bool"
        }
      ],
      "name": "TokenSupportUpdated",
      "type": "event"
    },
    {
      "inputs": [
        {
          "internalType": "address[]",
          "name": "_recipients",
          "type": "address[]"
        },
        {
          "internalType": "uint256[]",
          "name": "_amounts",
          "type": "uint256[]"
        },
        {
          "internalType": "address",
          "name": "_token",
          "type": "address"
        },
        {
          "internalType": "string",
          "name": "_message",
          "type": "string"
        }
      ],
      "name": "batchTip",
      "outputs": [],
      "stateMutability": "payable",
      "type": "function"
    },
    {
      "inputs": [],
      "name": "emergencyWithdraw",
      "outputs": [],
      "stateMutability": "nonpayable",
      "type": "function"
    },
    {
      "inputs": [
        {
          "internalType": "address",
          "name": "_token",
          "type": "address"
        }
      ],
      "name": "emergencyWithdrawToken",
      "outputs": [],
      "stateMutability": "nonpayable",
      "type": "function"
    },
    {
      "inputs": [],
      "name": "feeRecipient",
      "outputs": [
        {
          "internalType": "address",
          "name": "",
          "type": "address"
        }
      ],
      "stateMutability": "view",
      "type": "function"
    },
    {
      "inputs": [
        {
          "internalType": "address",
          "name": "_user",
          "type": "address"
        }
      ],
      "name": "getReceivedTips",
      "outputs": [
        {
          "internalType": "uint256[]",
          "name": "",
          "type": "uint256[]"
        }
      ],
      "stateMutability": "view",
      "type": "function"
    },
    {
      "inputs": [
        {
          "internalType": "address",
          "name": "_user",
          "type": "address"
        }
      ],
      "name": "getSentTips",
      "outputs": [
        {
          "internalType": "uint256[]",
          "name": "",
          "type": "uint256[]"
        }
      ],
      "stateMutability": "view",
      "type": "function"
    },
    {
      "inputs": [],
      "name": "nextTipId",
      "outputs": [
        {
          "internalType": "uint256",
          "name": "",
          "type": "uint256"
        }
      ],
      "stateMutability": "view",
      "type": "function"
    },
    {
      "inputs": [],
      "name": "owner",
      "outputs": [
        {
          "internalType": "address",
          "name": "",
          "type": "address"
        }
      ],
      "stateMutability": "view",
      "type": "function"
    },
    {
      "inputs": [],
      "name": "platformFeePercent",
      "outputs": [
        {
          "internalType": "uint256",
          "name": "",
          "type": "uint256"
        }
      ],
      "stateMutability": "view",
      "type": "function"
    },
    {
      "inputs": [],
      "name": "renounceOwnership",
      "outputs": [],
      "stateMutability": "nonpayable",
      "type": "function"
    },
    {
      "inputs": [
        {
          "internalType": "address",
          "name": "_token",
          "type": "address"
        },
        {
          "internalType": "bool",
          "name": "_supported",
          "type": "bool"
        }
      ],
      "name": "setTokenSupport",
      "outputs": [],
      "stateMutability": "nonpayable",
      "type": "function"
    },
    {
      "inputs": [
        {
          "internalType": "address",
          "name": "",
          "type": "address"
        }
      ],
      "name": "supportedTokens",
      "outputs": [
        {
          "internalType": "bool",
          "name": "",
          "type": "bool"
        }
      ],
      "stateMutability": "view",
      "type": "function"
    },
    {
      "inputs": [
        {
          "internalType": "address",
          "name": "_to",
          "type": "address"
        },
        {
          "internalType": "string",
          "name": "_message",
          "type": "string"
        }
      ],
      "name": "tipETH",
      "outputs": [],
      "stateMutability": "payable",
      "type": "function"
    },
    {
      "inputs": [
        {
          "internalType": "address",
          "name": "_to",
          "type": "address"
        },
        {
          "internalType": "address",
          "name": "_token",
          "type": "address"
        },
        {
          "internalType": "uint256",
          "name": "_amount",
          "type": "uint256"
        },
        {
          "internalType": "string",
          "name": "_message",
          "type": "string"
        }
      ],
      "name": "tipToken",
      "outputs": [],
      "stateMutability": "nonpayable",
      "type": "function"
    },
    {
      "inputs": [
        {
          "internalType": "uint256",
          "name": "",
          "type": "uint256"
        }
      ],
      "name": "tips",
      "outputs": [
        {
          "internalType": "address",
          "name": "from",
          "type": "address"
        },
        {
          "internalType": "address",
          "name": "to",
          "type": "address"
        },
        {
          "internalType": "uint256",
          "name": "amount",
          "type": "uint256"
        },
        {
          "internalType": "address",
          "name": "token",
          "type": "address"
        },
        {
          "internalType": "string",
          "name": "message",
          "type": "string"
        },
        {
          "internalType": "uint256",
          "name": "timestamp",
          "type": "uint256"
        }
      ],
      "stateMutability": "view",
      "type": "function"
    },
    {
      "inputs": [
        {
          "internalType": "address",
          "name": "",
          "type": "address"
        }
      ],
      "name": "totalTipsReceived",
      "outputs": [
        {
          "internalType": "uint256",
          "name": "",
          "type": "uint256"
        }
      ],
      "stateMutability": "view",
      "type": "function"
    },
    {
      "inputs": [
        {
          "internalType": "address",
          "name": "",
          "type": "address"
        }
      ],
      "name": "totalTipsSent",
      "outputs": [
        {
          "internalType": "uint256",
          "name": "",
          "type": "uint256"
        }
      ],
      "stateMutability": "view",
      "type": "function"
    },
    {
      "inputs": [
        {
          "internalType": "address",
          "name": "newOwner",
          "type": "address"
        }
      ],
      "name": "transferOwnership",
      "outputs": [],
      "stateMutability": "nonpayable",
      "type": "function"
    },
    {
      "inputs": [
        {
          "internalType": "uint256",
          "name": "_newFee",
          "type": "uint256"
        }
      ],
      "name": "updateFee",
      "outputs": [],
      "stateMutability": "nonpayable",
      "type": "function"
    },
    {
      "inputs": [
        {
          "internalType": "address",
          "name": "_newRecipient",
          "type": "address"
        }
      ],
      "name": "updateFeeRecipient",
      "outputs": [],
      "stateMutability": "nonpayable",
      "type": "function"
    },
    {
      "inputs": [
        {
          "internalType": "address",
          "name": "",
          "type": "address"
        },
        {
          "internalType": "uint256",
          "name": "",
          "type": "uint256"
        }
      ],
      "name": "userReceivedTips",
      "outputs": [
        {
          "internalType": "uint256",
          "name": "",
          "type": "uint256"
        }
      ],
      "stateMutability": "view",
      "type": "function"
    },
    {
      "inputs": [
        {
          "internalType": "address",
          "name": "",
          "type": "address"
        },
        {
          "internalType": "uint256",
          "name": "",
          "type": "uint256"
        }
      ],
      "name": "userSentTips",
      "outputs": [
        {
          "internalType": "uint256",
          "name": "",
          "type": "uint256"
        }
      ],
      "stateMutability": "view",
      "type": "function"
    }
  ],
  "bytecode": "0x608060405260fa6003553480156200001657600080fd5b50604051620024e1380380620024e1833981016040819052620000399162000182565b6001600055620000493362000113565b6001600160a01b038216620000a45760405162461bcd60e51b815260206004820152601560248201527f496e76616c69642066656520726563697069656e740000000000000000000000604482015260640160405180910390fd5b600480546001600160a01b0319166001600160a01b03938416179055600a6020527f13da86008ba1c6922daee3e07db95305ef49ebced9f5467a0b8613fcc6b343e3805460ff1990811660019081179092559190921660009081526040902080549091169091179055620001ba565b600180546001600160a01b038381166001600160a01b0319831681179093556040519116919082907f8be0079c531659141344cd1fd0a4f28419497f9722a3daafe3b4186f6b6457e090600090a35050565b80516001600160a01b03811681146200017d57600080fd5b919050565b600080604083850312156200019657600080fd5b620001a18362000165565b9150620001b16020840162000165565b90509250929050565b61231780620001ca6000396000f3fe6080604052600436106101355760003560e01c80639012c4a8116100ab578063cd34d1e91161006f578063cd34d1e914610389578063d39702ef146103b6578063db2e21bc146103c9578063f11a1655146103de578063f160d369146103fe578063f2fde38b1461041e57600080fd5b80639012c4a8146102e15780639cd6fe1a14610301578063a5c68c5914610321578063abfefb0414610353578063b91b6b661461037357600080fd5b806346904840116100fd57806346904840146101f357806368c4ac261461022b578063715018a61461026b5780638acf90dd146102805780638c639a85146102ad5780638da5cb5b146102c357600080fd5b80630c6a753f1461013a5780631af032031461015c5780631c2e6bae1461017c5780632cbfad2e146101b25780633d37b329146101c5575b600080fd5b34801561014657600080fd5b5061015a610155366004611b91565b61043e565b005b34801561016857600080fd5b5061015a610177366004611bc8565b6104a5565b34801561018857600080fd5b5061019c610197366004611bc8565b610540565b6040516101a99190611bea565b60405180910390f35b61015a6101c0366004611d74565b6105ac565b3480156101d157600080fd5b506101e56101e0366004611e69565b6107fa565b6040519081526020016101a9565b3480156101ff57600080fd5b50600454610213906001600160a01b031681565b6040516001600160a01b0390911681526020016101a9565b34801561023757600080fd5b5061025b610246366004611bc8565b600a6020526000908152604090205460ff1681565b60405190151581526020016101a9565b34801561027757600080fd5b5061015a61082b565b34801561028c57600080fd5b506101e561029b366004611bc8565b60076020526000908152604090205481565b3480156102b957600080fd5b506101e560035481565b3480156102cf57600080fd5b506001546001600160a01b0316610213565b3480156102ed57600080fd5b5061015a6102fc366004611e93565b61083f565b34801561030d57600080fd5b5061019c61031c366004611bc8565b6108c3565b34801561032d57600080fd5b5061034161033c366004611e93565b61092d565b6040516101a996959493929190611efc565b34801561035f57600080fd5b5061015a61036e366004611f4a565b6109fb565b34801561037f57600080fd5b506101e560025481565b34801561039557600080fd5b506101e56103a4366004611bc8565b60066020526000908152604090205481565b61015a6103c4366004611fa6565b610db6565b3480156103d557600080fd5b5061015a61110b565b3480156103ea57600080fd5b506101e56103f9366004611e69565b61114f565b34801561040a57600080fd5b5061015a610419366004611bc8565b61116b565b34801561042a57600080fd5b5061015a610439366004611bc8565b6111bb565b610446611231565b6001600160a01b0382166000818152600a6020908152604091829020805460ff191685151590811790915591519182527fbbe72b7d9dcb594ee398a4a617885aba53d833e2aad601c813ce9df99fdeb49b910160405180910390a25050565b6104ad611231565b8061053c6104c36001546001600160a01b031690565b6040516370a0823160e01b81523060048201526001600160a01b038416906370a0823190602401602060405180830381865afa158015610507573d6000803e3d6000fd5b505050506040513d601f19601f8201168201806040525081019061052b9190611ff4565b6001600160a01b038416919061128b565b5050565b6001600160a01b0381166000908152600960209081526040918290208054835181840281018401909452808452606093928301828280156105a057602002820191906000526020600020905b81548152602001906001019080831161058c575b50505050509050919050565b6105b46112f3565b82518451146106025760405162461bcd60e51b8152602060048201526015602482015274082e4e4c2f240d8cadccee8d040dad2e6dac2e8c6d605b1b60448201526064015b60405180910390fd5b60008451116106435760405162461bcd60e51b815260206004820152600d60248201526c4e6f20726563697069656e747360981b60448201526064016105f9565b60648451111561068b5760405162461bcd60e51b8152602060048201526013602482015272546f6f206d616e7920726563697069656e747360681b60448201526064016105f9565b6001600160a01b03821661078c576000805b84518110156106df578481815181106106b8576106b861200d565b6020026020010151826106cb9190612039565b9150806106d781612052565b91505061069d565b50803410156107285760405162461bcd60e51b8152602060048201526015602482015274125b9cdd59999a58da595b9d08115512081cd95b9d605a1b60448201526064016105f9565b60005b8551811015610785576107738682815181106107495761074961200d565b60200260200101518683815181106107635761076361200d565b602002602001015160008661134c565b8061077d81612052565b91505061072b565b50506107ea565b60005b84518110156107e8576107d68582815181106107ad576107ad61200d565b60200260200101518583815181106107c7576107c761200d565b602002602001015185856115ce565b806107e081612052565b91505061078f565b505b6107f46001600055565b50505050565b6008602052816000526040600020818154811061081657600080fd5b90600052602060002001600091509150505481565b610833611231565b61083d6000611878565b565b610847611231565b6103e88111156108885760405162461bcd60e51b815260206004820152600c60248201526b08ccaca40e8dede40d0d2ced60a31b60448201526064016105f9565b60038190556040518181527f8c4d35e54a3f2ef1134138fd8ea3daee6a3c89e10d2665996babdf70261e2c769060200160405180910390a150565b6001600160a01b0381166000908152600860209081526040918290208054835181840281018401909452808452606093928301828280156105a0576020028201919060005260206000209081548152602001906001019080831161058c5750505050509050919050565b600560205260009081526040902080546001820154600283015460038401546004850180546001600160a01b039586169694861695939492909316926109729061206b565b80601f016020809104026020016040519081016040528092919081815260200182805461099e9061206b565b80156109eb5780601f106109c0576101008083540402835291602001916109eb565b820191906000526020600020905b8154815290600101906020018083116109ce57829003601f168201915b5050505050908060050154905086565b610a036112f3565b60008211610a235760405162461bcd60e51b81526004016105f9906120a5565b6001600160a01b038416610a495760405162461bcd60e51b81526004016105f9906120e6565b336001600160a01b03851603610a975760405162461bcd60e51b815260206004820152601360248201527221b0b73737ba103a34b8103cb7bab939b2b63360691b60448201526064016105f9565b6001600160a01b0383166000908152600a602052604090205460ff16610af55760405162461bcd60e51b8152602060048201526013602482015272151bdad95b881b9bdd081cdd5c1c1bdc9d1959606a1b60448201526064016105f9565b6040516370a0823160e01b8152336004820152839083906001600160a01b038316906370a0823190602401602060405180830381865afa158015610b3d573d6000803e3d6000fd5b505050506040513d601f19601f82011682018060405250810190610b619190611ff4565b1015610ba65760405162461bcd60e51b8152602060048201526014602482015273496e73756666696369656e742062616c616e636560601b60448201526064016105f9565b600061271060035485610bb99190612111565b610bc39190612128565b90506000610bd1828661214a565b600280549192506000919082610be683612052565b909155506040805160c0810182523381526001600160a01b038b811660208084019182528385018c81528d841660608601908152608086018d81524260a08801526000898152600590945296909220855181549086166001600160a01b03199182161782559351600182018054918716918616919091179055905160028201559051600382018054919094169216919091179091559151929350916004820190610c9090826121ab565b5060a091909101516005909101553360009081526007602052604081208054889290610cbd908490612039565b90915550506001600160a01b03881660009081526006602052604081208054889290610cea908490612039565b9091555050336000818152600960209081526040808320805460018181018355918552838520018690556001600160a01b038d81168552600884529184208054918201815584529190922001839055610d4891908616908a856118ca565b8215610d6a57600454610d6a906001600160a01b0386811691339116866118ca565b876001600160a01b0316336001600160a01b0316826000805160206122eb833981519152898b8a604051610da09392919061226b565b60405180910390a4505050506107f46001600055565b610dbe6112f3565b60003411610dde5760405162461bcd60e51b81526004016105f9906120a5565b6001600160a01b038216610e045760405162461bcd60e51b81526004016105f9906120e6565b336001600160a01b03831603610e525760405162461bcd60e51b815260206004820152601360248201527221b0b73737ba103a34b8103cb7bab939b2b63360691b60448201526064016105f9565b60008052600a6020527f13da86008ba1c6922daee3e07db95305ef49ebced9f5467a0b8613fcc6b343e35460ff16610ec55760405162461bcd60e51b8152602060048201526016602482015275115512081d1a5c1cc81b9bdd081cdd5c1c1bdc9d195960521b60448201526064016105f9565b600061271060035434610ed89190612111565b610ee29190612128565b90506000610ef0823461214a565b600280549192506000919082610f0583612052565b909155506040805160c0810182523381526001600160a01b03888116602080840191825234848601908152600060608601818152608087018d81524260a08901528983526005909452969020855181549086166001600160a01b031991821617825593516001820180549187169186169190911790559051600282015594516003860180549190941692169190911790915551929350916004820190610fab90826121ab565b5060a091909101516005909101553360009081526007602052604081208054349290610fd8908490612039565b90915550506001600160a01b03851660009081526006602052604081208054349290611005908490612039565b9091555050336000908152600960209081526040808320805460018181018355918552838520018590556001600160a01b038916808552600884528285208054928301815585529284200184905551909184156108fc02918591818181858888f1935050505015801561107c573d6000803e3d6000fd5b5082156110bf576004546040516001600160a01b039091169084156108fc029085906000818181858888f193505050501580156110bd573d6000803e3d6000fd5b505b846001600160a01b0316336001600160a01b0316826000805160206122eb833981519152346000896040516110f69392919061226b565b60405180910390a450505061053c6001600055565b611113611231565b6001546040516001600160a01b03909116904780156108fc02916000818181858888f1935050505015801561114c573d6000803e3d6000fd5b50565b6009602052816000526040600020818154811061081657600080fd5b611173611231565b6001600160a01b0381166111995760405162461bcd60e51b81526004016105f9906120e6565b600480546001600160a01b0319166001600160a01b0392909216919091179055565b6111c3611231565b6001600160a01b0381166112285760405162461bcd60e51b815260206004820152602660248201527f4f776e61626c653a206e6577206f776e657220697320746865207a65726f206160448201526564647265737360d01b60648201526084016105f9565b61114c81611878565b6001546001600160a01b0316331461083d5760405162461bcd60e51b815260206004820181905260248201527f4f776e61626c653a2063616c6c6572206973206e6f7420746865206f776e657260448201526064016105f9565b6040516001600160a01b0383166024820152604481018290526112ee90849063a9059cbb60e01b906064015b60408051601f198184030181529190526020810180516001600160e01b03166001600160e01b031990931692909217909152611902565b505050565b6002600054036113455760405162461bcd60e51b815260206004820152601f60248201527f5265656e7472616e637947756172643a207265656e7472616e742063616c6c0060448201526064016105f9565b6002600055565b6001600160a01b0384161580159061136d57506001600160a01b0384163314155b6113895760405162461bcd60e51b81526004016105f9906120e6565b60006127106003548561139c9190612111565b6113a69190612128565b905060006113b4828661214a565b6002805491925060009190826113c983612052565b909155506040805160c0810182523381526001600160a01b038a811660208084019182528385018c81528b841660608601908152608086018c81524260a08801526000898152600590945296909220855181549086166001600160a01b0319918216178255935160018201805491871691861691909117905590516002820155905160038201805491909416921691909117909155915192935091600482019061147390826121ab565b5060a0919091015160059091015533600090815260076020526040812080548892906114a0908490612039565b90915550506001600160a01b038716600090815260066020526040812080548892906114cd908490612039565b9091555050336000908152600960209081526040808320805460018181018355918552838520018590556001600160a01b038b16808552600884528285208054928301815585529284200184905551909184156108fc02918591818181858888f19350505050158015611544573d6000803e3d6000fd5b508215611587576004546040516001600160a01b039091169084156108fc029085906000818181858888f19350505050158015611585573d6000803e3d6000fd5b505b866001600160a01b0316336001600160a01b0316826000805160206122eb8339815191528989896040516115bd9392919061226b565b60405180910390a450505050505050565b6001600160a01b038416158015906115ef57506001600160a01b0384163314155b61160b5760405162461bcd60e51b81526004016105f9906120e6565b6001600160a01b0382166000908152600a602052604090205460ff166116695760405162461bcd60e51b8152602060048201526013602482015272151bdad95b881b9bdd081cdd5c1c1bdc9d1959606a1b60448201526064016105f9565b60035482906000906127109061167f9087612111565b6116899190612128565b90506000611697828761214a565b6002805491925060009190826116ac83612052565b909155506040805160c0810182523381526001600160a01b038b811660208084019182528385018d81528c841660608601908152608086018d81524260a08801526000898152600590945296909220855181549086166001600160a01b0319918216178255935160018201805491871691861691909117905590516002820155905160038201805491909416921691909117909155915192935091600482019061175690826121ab565b5060a091909101516005909101553360009081526007602052604081208054899290611783908490612039565b90915550506001600160a01b038816600090815260066020526040812080548992906117b0908490612039565b9091555050336000818152600960209081526040808320805460018181018355918552838520018690556001600160a01b038d8116855260088452918420805491820181558452919092200183905561180e91908616908a856118ca565b821561183057600454611830906001600160a01b0386811691339116866118ca565b876001600160a01b0316336001600160a01b0316826000805160206122eb8339815191528a8a8a6040516118669392919061226b565b60405180910390a45050505050505050565b600180546001600160a01b038381166001600160a01b0319831681179093556040519116919082907f8be0079c531659141344cd1fd0a4f28419497f9722a3daafe3b4186f6b6457e090600090a35050565b6040516001600160a01b03808516602483015283166044820152606481018290526107f49085906323b872dd60e01b906084016112b7565b6000611957826040518060400160405280602081526020017f5361666545524332303a206c6f772d6c6576656c2063616c6c206661696c6564815250856001600160a01b03166119d79092919063ffffffff16565b9050805160001480611978575080806020019051810190611978919061229e565b6112ee5760405162461bcd60e51b815260206004820152602a60248201527f5361666545524332303a204552433230206f7065726174696f6e20646964206e6044820152691bdd081cdd58d8d9595960b21b60648201526084016105f9565b60606119e684846000856119ee565b949350505050565b606082471015611a4f5760405162461bcd60e51b815260206004820152602660248201527f416464726573733a20696e73756666696369656e742062616c616e636520666f6044820152651c8818d85b1b60d21b60648201526084016105f9565b600080866001600160a01b03168587604051611a6b91906122bb565b60006040518083038185875af1925050503d8060008114611aa8576040519150601f19603f3d011682016040523d82523d6000602084013e611aad565b606091505b5091509150611abe87838387611ac9565b979650505050505050565b60608315611b38578251600003611b31576001600160a01b0385163b611b315760405162461bcd60e51b815260206004820152601d60248201527f416464726573733a2063616c6c20746f206e6f6e2d636f6e747261637400000060448201526064016105f9565b50816119e6565b6119e68383815115611b4d5781518083602001fd5b8060405162461bcd60e51b81526004016105f991906122d7565b80356001600160a01b0381168114611b7e57600080fd5b919050565b801515811461114c57600080fd5b60008060408385031215611ba457600080fd5b611bad83611b67565b91506020830135611bbd81611b83565b809150509250929050565b600060208284031215611bda57600080fd5b611be382611b67565b9392505050565b6020808252825182820181905260009190848201906040850190845b81811015611c2257835183529284019291840191600101611c06565b50909695505050505050565b634e487b7160e01b600052604160045260246000fd5b604051601f8201601f1916810167ffffffffffffffff81118282101715611c6d57611c6d611c2e565b604052919050565b600067ffffffffffffffff821115611c8f57611c8f611c2e565b5060051b60200190565b600082601f830112611caa57600080fd5b81356020611cbf611cba83611c75565b611c44565b82815260059290921b84018101918181019086841115611cde57600080fd5b8286015b84811015611cf95780358352918301918301611ce2565b509695505050505050565b600082601f830112611d1557600080fd5b813567ffffffffffffffff811115611d2f57611d2f611c2e565b611d42601f8201601f1916602001611c44565b818152846020838601011115611d5757600080fd5b816020850160208301376000918101602001919091529392505050565b60008060008060808587031215611d8a57600080fd5b843567ffffffffffffffff80821115611da257600080fd5b818701915087601f830112611db657600080fd5b81356020611dc6611cba83611c75565b82815260059290921b8401810191818101908b841115611de557600080fd5b948201945b83861015611e0a57611dfb86611b67565b82529482019490820190611dea565b98505088013592505080821115611e2057600080fd5b611e2c88838901611c99565b9450611e3a60408801611b67565b93506060870135915080821115611e5057600080fd5b50611e5d87828801611d04565b91505092959194509250565b60008060408385031215611e7c57600080fd5b611e8583611b67565b946020939093013593505050565b600060208284031215611ea557600080fd5b5035919050565b60005b83811015611ec7578181015183820152602001611eaf565b50506000910152565b60008151808452611ee8816020860160208601611eac565b601f01601f19169290920160200192915050565b6001600160a01b0387811682528681166020830152604082018690528416606082015260c060808201819052600090611f3790830185611ed0565b90508260a0830152979650505050505050565b60008060008060808587031215611f6057600080fd5b611f6985611b67565b9350611f7760208601611b67565b925060408501359150606085013567ffffffffffffffff811115611f9a57600080fd5b611e5d87828801611d04565b60008060408385031215611fb957600080fd5b611fc283611b67565b9150602083013567ffffffffffffffff811115611fde57600080fd5b611fea85828601611d04565b9150509250929050565b60006020828403121561200657600080fd5b5051919050565b634e487b7160e01b600052603260045260246000fd5b634e487b7160e01b600052601160045260246000fd5b8082018082111561204c5761204c612023565b92915050565b60006001820161206457612064612023565b5060010190565b600181811c9082168061207f57607f821691505b60208210810361209f57634e487b7160e01b600052602260045260246000fd5b50919050565b60208082526021908201527f54697020616d6f756e74206d7573742062652067726561746572207468616e206040820152600360fc1b606082015260800190565b602080825260119082015270125b9d985b1a59081c9958da5c1a595b9d607a1b604082015260600190565b808202811582820484141761204c5761204c612023565b60008261214557634e487b7160e01b600052601260045260246000fd5b500490565b8181038181111561204c5761204c612023565b601f8211156112ee57600081815260208120601f850160051c810160208610156121845750805b601f850160051c820191505b818110156121a357828155600101612190565b505050505050565b815167ffffffffffffffff8111156121c5576121c5611c2e565b6121d9816121d3845461206b565b8461215d565b602080601f83116001811461220e57600084156121f65750858301515b600019600386901b1c1916600185901b1785556121a3565b600085815260208120601f198616915b8281101561223d5788860151825594840194600190910190840161221e565b508582101561225b5787850151600019600388901b60f8161c191681555b5050505050600190811b01905550565b8381526001600160a01b038316602082015260606040820181905260009061229590830184611ed0565b95945050505050565b6000602082840312156122b057600080fd5b8151611be381611b83565b600082516122cd818460208701611eac565b9190910192915050565b602081526000611be36020830184611ed056fe71bd3b751acbd966ce11c3687274832d4767c4b19a0b1b487fa710b237c41f2ca164736f6c6343000813000a",
  "linkReferences": {},
  "deployedLinkReferences": {}
}